S012000041544D454741333238502E7372656376
S11300000C9434000C9451000C9451000C946D0029
S11300100C9451000C9492000C9451000C945100D7
S11300200C9451000C9451000C9451000C94510008
S11300300C9451000C9451000C9451000C945100F8
S11300400C9451000C9451000C94B0000C94510089
S11300500C9451000C9451000C9451000C945100D8
S11300600C9451000C94510011241FBECFEFD8E022
S1130070DEBFCDBF11E0A0E0B1E0E2E9F9E002C0EB
S113008005900D92A430B107D9F721E0A4E0B1E0C6
S113009001C01D92A730B207E1F70E94E3000C945F
S11300A0C7040C94000014B88AB18F778AB985B15B
S11300B08F6385B98BB180688BB9E8E6F0E0808105
S11300C085608083EBE6F0E080818F638083EDE6DA
S11300D0F0E080818068808308951F920F920FB6AC
S11300E00F9211248F93189903C081E08093060125
S11300F0199903C082E0809306011A9903C083E032
S1130100809306011B9903C084E0809306011C9927
S113011003C085E0809306018F910F900FBE0F906E
S11301201F9018951F920F920FB60F9211244F9B98
S1130130109206010F900FBE0F901F901895AC01FE
S113014020E007C09091C00095FFFCCF3093C6001B
S11301502F5FFA01E20FF11D30813111F3CF0895C1
S11301601F920F920FB60F9211248F938091C600A5
S1130170809304018091C00085FFFCCF809104012D
S11301808093C6008F910F900FBE0F901F9018950B
S11301908AB182608AB98AB18E7F8AB91092C0000E
S11301A0E1ECF0E01082808188698083E2ECF0E089
S11301B0108280818660808388E090E09093C500FF
S11301C08093C40008950E9453000E94C80087E0F1
S11301D080930601789480910601823009F459C015
S11301E028F4882361F0813079F1F5CF843009F463
S11301F09AC008F473C0853009F4BAC0ECCF80917A
S113020006011F928F9380E091E09F938F9385E086
S113021091E09F938F930E94DD0185E091E00E941D
S11302209F0087E0809306012FEF89E698E1215033
S113023080409040E1F700C000000F900F900F90B5
S11302400F900F900F90C7CF809106011F928F934C
S113025080E091E09F938F9385E091E09F938F934B
S11302600E94DD0185E091E00E949F0087E0809379
S113027006012FEF89E698E1215080409040E1F794
S113028000C000000F900F900F900F900F900F90F0
S1130290A2CF809106011F928F9380E091E09F93FB
S11302A08F9385E091E09F938F930E94DD0185E019
S11302B091E00E949F0087E0809306012FEF89E67A
S11302C098E1215080409040E1F700C000000F9079
S11302D00F900F900F900F900F907DCF809106019B
S11302E01F928F9380E091E09F938F9385E091E03C
S11302F09F938F930E94DD0185E091E00E949F000F
S113030087E0809306012FEF89E698E12150804031
S11303109040E1F700C000000F900F900F900F90F5
S11303200F900F9058CF809106011F928F9380E019
S113033091E09F938F9385E091E09F938F930E9428
S1130340DD0185E091E00E949F0087E08093060133
S11303502FEF89E698E1215080409040E1F700C0FA
S113036000000F900F900F900F900F900F9033CFCD
S1130370809106011F928F9380E091E09F938F9369
S113038085E091E09F938F930E94DD0185E091E0E9
S11303900E949F0087E0809306012FEF89E698E191
S11303A0215080409040E1F700C000000F900F9072
S11303B00F900F900F900F900ECFAEE0B0E0E3EEF1
S11303C0F1E00C949E040D891E8986E08C831A83C7
S11303D009838FEF9FE79E838D83AE01475E5F4F56
S11303E06F89788DCE0101960E94FF01EF81F88517
S11303F0E00FF11F10822E96E4E00C94BA04ABE0F7
S1130400B0E0E5E0F2E00C9490046C017B018A0119
S1130410FC0117821682838181FFCCC1CE01019633
S11304203C01F6019381F70193FD859193FF81913E
S11304307F01882309F4BAC1853239F493FD85918B
S113044093FF81917F01853229F4B60190E00E94E7
S1130450F603E7CF912C212C312CFFE1F315D8F0D2
S11304608B3279F038F4803279F08332A1F4232D81
S113047020611DC08D3261F0803369F4232D216029
S113048016C0832D8260382EE32DE4603E2E2AC0F0
S1130490F32DF8601DC037FC2DC020ED280F2A3045
S11304A040F08E32B9F436FC81C1232D2064322E03
S11304B019C036FE06C08AE0989E200D1124922EA3
S11304C011C0EAE02E9E200D1124222EF32DF0629D
S11304D03F2E08C08C3621F4832D8068382E02C04C
S11304E0883641F4F70193FD859193FF81917F0153
S11304F08111B3CF982F9F7D9554933028F40C5FCE
S11305001F4F9FE399830DC0833631F0833771F019
S1130510833509F059C021C0F801808189830E5FB9
S11305201F4F88248394912C530113C02801F2E0B7
S11305304F0E511CF801A080B18036FE03C0692D16
S113054070E002C06FEF7FEFC5010E94EB034C0126
S11305508201F32DFF773F2E16C0280122E0420EC0
S1130560511CF801A080B18036FE03C0692D70E0F3
S113057002C06FEF7FEFC5010E94E0034C01F32D31
S1130580F0683F2E820133FC1BC0822D90E0881658
S11305909906B0F4B60180E290E00E94F6032A9432
S11305A0F4CFF50137FC859137FE81915F01B601E7
S11305B090E00E94F60321102A9421E0821A910807
S11305C08114910471F7E8C0843611F0893641F53D
S11305D0F80137FE07C060817181828193810C5FCD
S11305E01F4F08C060817181072E000C880B990B86
S11305F00E5F1F4FF32DFF763F2E97FF09C0909596
S11306008095709561957F4F8F4F9F4FF0683F2E77
S11306102AE030E0A3010E943204882E861845C0E7
S1130620853731F4232D2F7EB22E2AE030E025C009
S1130630932D997FB92E8F36C1F018F4883579F04F
S1130640B5C0803719F0883721F0B0C0E92FE061D8
S1130650BE2EB4FE0DC0FB2DF460BF2E09C034FEC7
S11306600AC0292F2660B22E06C028E030E005C05B
S113067020E130E002C020E132E0F801B7FE07C01B
S113068060817181828193810C5F1F4F06C06081FC
S1130690718180E090E00E5F1F4FA3010E9432043D
S11306A0882E8618FB2DFF773F2E36FE0DC0232D96
S11306B02E7FA22E891458F434FE0BC032FC09C0DC
S11306C0832D8E7EA82E05C0B82CA32C03C0B82C75
S11306D001C0B92CA4FE0FC0FE01E80DF11D8081FC
S11306E0803321F49A2D997EA92E09C0A2FE06C05A
S11306F0B394B39404C08A2D867809F0B394A3FC10
S113070011C0A0FE06C0B21488F4280C922C9B18C9
S11307100EC0B21460F4B60180E290E00E94F603C9
S1130720B394F7CFB21418F42B1802C0982C212CD0
S1130730A4FE10C0B60180E390E00E94F603A2FE7E
S113074017C0A1FC03C088E790E002C088E590E0F0
S1130750B6010CC08A2D867859F0A1FE02C08BE246
S113076001C080E2A7FC8DE2B60190E00E94F6038E
S1130770891438F4B60180E390E00E94F6039A9459
S1130780F7CF8A94F301E80DF11D8081B60190E062
S11307900E94F6038110F5CF222009F442CEB6015F
S11307A080E290E00E94F6032A94F6CFF601868157
S11307B0978102C08FEF9FEF2B96E2E10C94AC047B
S11307C0FC010590615070400110D8F78095909518
S11307D08E0F9F1F0895FC0161507040019001101D
S11307E0D8F7809590958E0F9F1F08950F931F93B0
S11307F0CF93DF93FB01238121FD03C08FEF9FEF94
S11308002CC022FF16C046815781248135814217AE
S1130810530744F4A081B1819D012F5F3F4F318381
S113082020838C93268137812F5F3F4F3783268324
S113083014C08B01EC01FB010084F185E02D0995C6
S1130840892BE1F6D80116968D919C911797019604
S113085017969C938E931697CE01DF91CF911F919B
S11308600F910895FA01AA27283051F1203181F11E
S1130870E8946F936E7F6E5F7F4F8F4F9F4FAF4FA4
S1130880B1E03ED0B4E03CD0670F781F891F9A1FB7
S1130890A11D680F791F8A1F911DA11D6A0F711D6B
S11308A0811D911DA11D20D009F468943F912AE077
S11308B0269F11243019305D3193DEF6CF0108955F
S11308C0462F4770405D4193B3E00FD0C9F7F6CF90
S11308D0462F4F70405D4A3318F0495D31FD405258
S11308E0419302D0A9F7EACFB4E0A69597958795EE
S11308F077956795BA95C9F70097610571050895CD
S11309009B01AC010A2E0694579547953795279578
S1130910BA95C9F7620F731F841F951FA01D089510
S11309202F923F924F925F926F927F928F929F92FB
S1130930AF92BF92CF92DF92EF92FF920F931F93E9
S1130940CF93DF93CDB7DEB7CA1BDB0B0FB6F8949A
S1130950DEBF0FBECDBF09942A88398848885F84DA
S11309606E847D848C849B84AA84B984C884DF804B
S1130970EE80FD800C811B81AA81B981CE0FD11D2F
S11309800FB6F894DEBF0FBECDBFED010895F89405
S1050990FFCF93
S107099225640000D4
S9030000FC
